{
  "contractName": "Voter",
  "abi": [
    {
      "constant": true,
      "inputs": [
        {
          "name": "",
          "type": "uint256"
        }
      ],
      "name": "candidates",
      "outputs": [
        {
          "name": "",
          "type": "string"
        }
      ],
      "payable": false,
      "stateMutability": "view",
      "type": "function",
      "signature": "0x3477ee2e"
    },
    {
      "constant": true,
      "inputs": [
        {
          "name": "",
          "type": "uint256"
        }
      ],
      "name": "votes",
      "outputs": [
        {
          "name": "",
          "type": "uint256"
        }
      ],
      "payable": false,
      "stateMutability": "view",
      "type": "function",
      "signature": "0x5df81330"
    },
    {
      "inputs": [
        {
          "name": "_candidates",
          "type": "string[]"
        }
      ],
      "payable": false,
      "stateMutability": "nonpayable",
      "type": "constructor",
      "signature": "constructor"
    },
    {
      "constant": false,
      "inputs": [
        {
          "name": "candidate",
          "type": "uint256"
        }
      ],
      "name": "vote",
      "outputs": [],
      "payable": false,
      "stateMutability": "nonpayable",
      "type": "function",
      "signature": "0x0121b93f"
    },
    {
      "constant": true,
      "inputs": [],
      "name": "getCandidates",
      "outputs": [
        {
          "name": "",
          "type": "string[]"
        }
      ],
      "payable": false,
      "stateMutability": "view",
      "type": "function",
      "signature": "0x06a49fce"
    },
    {
      "constant": true,
      "inputs": [],
      "name": "getVotes",
      "outputs": [
        {
          "name": "",
          "type": "uint256[]"
        }
      ],
      "payable": false,
      "stateMutability": "view",
      "type": "function",
      "signature": "0x0dc96015"
    }
  ],
  "bytecode": "0x60806040523480156200001157600080fd5b5060405162000c8038038062000c8083398101806040526200003791908101906200030c565b80600190805190602001906200004f9291906200006d565b50600180549050600081620000659190620000d4565b50506200040b565b828054828255906000526020600020908101928215620000c1579160200282015b82811115620000c0578251829080519060200190620000af92919062000103565b50916020019190600101906200008e565b5b509050620000d091906200018a565b5090565b815481835581811115620000fe57818360005260206000209182019101620000fd9190620001bb565b5b505050565b828054600181600116156101000203166002900490600052602060002090601f016020900481019282601f106200014657805160ff191683800117855562000177565b8280016001018555821562000177579182015b828111156200017657825182559160200191906001019062000159565b5b509050620001869190620001bb565b5090565b620001b891905b80821115620001b45760008181620001aa9190620001e3565b5060010162000191565b5090565b90565b620001e091905b80821115620001dc576000816000905550600101620001c2565b5090565b90565b50805460018160011615610100020316600290046000825580601f106200020b57506200022c565b601f0160209004906000526020600020908101906200022b9190620001bb565b5b50565b600082601f83011215156200024357600080fd5b81516200025a62000254826200037f565b62000351565b9150818183526020840193506020810190508360005b83811015620002a45781518601620002898882620002ae565b84526020840193506020830192505060018101905062000270565b5050505092915050565b600082601f8301121515620002c257600080fd5b8151620002d9620002d382620003a8565b62000351565b91508082526020830160208301858383011115620002f657600080fd5b62000303838284620003d5565b50505092915050565b6000602082840312156200031f57600080fd5b600082015167ffffffffffffffff8111156200033a57600080fd5b62000348848285016200022f565b91505092915050565b6000604051905081810181811067ffffffffffffffff821117156200037557600080fd5b8060405250919050565b600067ffffffffffffffff8211156200039757600080fd5b602082029050602081019050919050565b600067ffffffffffffffff821115620003c057600080fd5b601f19601f8301169050602081019050919050565b60005b83811015620003f5578082015181840152602081019050620003d8565b8381111562000405576000848401525b50505050565b610865806200041b6000396000f3fe60806040526004361061006d576000357c0100000000000000000000000000000000000000000000000000000000900463ffffffff1680630121b93f1461007257806306a49fce1461009b5780630dc96015146100c65780633477ee2e146100f15780635df813301461012e575b600080fd5b34801561007e57600080fd5b5061009960048036036100949190810190610518565b61016b565b005b3480156100a757600080fd5b506100b06102e5565b6040516100bd91906106bd565b60405180910390f35b3480156100d257600080fd5b506100db6103ce565b6040516100e891906106df565b60405180910390f35b3480156100fd57600080fd5b5061011860048036036101139190810190610518565b610426565b6040516101259190610701565b60405180910390f35b34801561013a57600080fd5b5061015560048036036101509190810190610518565b6104e1565b6040516101629190610763565b60405180910390f35b80600011158015610180575060018054905081105b15156101c1576040517f08c379a00000000000000000000000000000000000000000000000000000000081526004016101b890610743565b60405180910390fd5b600260003373ffffffffffffffffffffffffffffffffffffffff1673ffffffffffffffffffffffffffffffffffffffff16815260200190815260200160002060009054906101000a900460ff16151515610250576040517f08c379a000000000000000000000000000000000000000000000000000000000815260040161024790610723565b60405180910390fd5b600160008281548110151561026157fe5b90600052602060002001540160008281548110151561027c57fe5b90600052602060002001819055506001600260003373ffffffffffffffffffffffffffffffffffffffff1673ffffffffffffffffffffffffffffffffffffffff16815260200190815260200160002060006101000a81548160ff02191690831515021790555050565b60606001805480602002602001604051908101604052809291908181526020016000905b828210156103c5578382906000526020600020018054600181600116156101000203166002900480601f0160208091040260200160405190810160405280929190818152602001828054600181600116156101000203166002900480156103b15780601f10610386576101008083540402835291602001916103b1565b820191906000526020600020905b81548152906001019060200180831161039457829003601f168201915b505050505081526020019060010190610309565b50505050905090565b6060600080548060200260200160405190810160405280929190818152602001828054801561041c57602002820191906000526020600020905b815481526020019060010190808311610408575b5050505050905090565b60018181548110151561043557fe5b906000526020600020016000915090508054600181600116156101000203166002900480601f0160208091040260200160405190810160405280929190818152602001828054600181600116156101000203166002900480156104d95780601f106104ae576101008083540402835291602001916104d9565b820191906000526020600020905b8154815290600101906020018083116104bc57829003601f168201915b505050505081565b6000818154811015156104f057fe5b906000526020600020016000915090505481565b600061051082356107dd565b905092915050565b60006020828403121561052a57600080fd5b600061053884828501610504565b91505092915050565b600061054c82610798565b808452602084019350836020820285016105658561077e565b60005b8481101561059e57838303885261058083835161060a565b925061058b826107b9565b9150602088019750600181019050610568565b508196508694505050505092915050565b60006105ba826107a3565b8084526020840193506105cc8361078b565b60005b828110156105fe576105e28683516106ae565b6105eb826107c6565b91506020860195506001810190506105cf565b50849250505092915050565b6000610615826107ae565b8084526106298160208601602086016107e7565b6106328161081a565b602085010191505092915050565b6000601982527f4163636f756e742068617320616c726561647920766f746564000000000000006020830152604082019050919050565b6000601182527f496e76616c69642063616e6469646174650000000000000000000000000000006020830152604082019050919050565b6106b7816107d3565b82525050565b600060208201905081810360008301526106d78184610541565b905092915050565b600060208201905081810360008301526106f981846105af565b905092915050565b6000602082019050818103600083015261071b818461060a565b905092915050565b6000602082019050818103600083015261073c81610640565b9050919050565b6000602082019050818103600083015261075c81610677565b9050919050565b600060208201905061077860008301846106ae565b92915050565b6000602082019050919050565b6000602082019050919050565b600081519050919050565b600081519050919050565b600081519050919050565b6000602082019050919050565b6000602082019050919050565b6000819050919050565b6000819050919050565b60005b838110156108055780820151818401526020810190506107ea565b83811115610814576000848401525b50505050565b6000601f19601f830116905091905056fea265627a7a723058209b286b697d2cbbce9fba01149107734a0f933b6af1aae867851fbd15031a06646c6578706572696d656e74616cf50037",
  "source": "pragma solidity ^0.5.0;\npragma experimental ABIEncoderV2;\n\n\ncontract Voter {\n  \n  uint[] public votes;\n  string[] public candidates;\n  mapping (address => bool) hasVoted;\n  \n  constructor(string[] memory _candidates) public {\n    candidates = _candidates;\n    votes.length = candidates.length;\n  }\n\n  //use to cast a vote. Acceppts the index of candidate in candidates[]\n  function vote(uint candidate) public {\n   \n    // Validate if the argument is valid\n    require(0 <= candidate && candidate < candidates.length, \"Invalid candidate\");\n    require(!hasVoted[msg.sender], \"Account has already voted\");\n\n    votes[candidate] = votes[candidate] + 1;\n    hasVoted[msg.sender] = true;\n  }\n\n\n// Returns a list of candidates\n  function getCandidates() view public returns (string[] memory) {\n    return candidates;\n  }\n\n\n  function getVotes() view public returns (uint[] memory) {\n    return votes;\n  }\n\n\n}\n",
  "sourcePath": "C:/projects/BLOCKCHAIN STACK/voting-system/contracts/Voter.sol",
  "compiler": {
    "name": "solc",
    "version": "0.5.0+commit.1d4f565a.Emscripten.clang"
  },
  "schemaVersion": "3.0.6",
  "updatedAt": "2019-04-21T02:19:20.014Z",
  "devdoc": {
    "methods": {}
  },
  "userdoc": {
    "methods": {}
  }
}