{
  "contractName": "Voter",
  "abi": [
    {
      "constant": true,
      "inputs": [
        {
          "name": "",
          "type": "uint256"
        }
      ],
      "name": "candidates",
      "outputs": [
        {
          "name": "",
          "type": "string"
        }
      ],
      "payable": false,
      "stateMutability": "view",
      "type": "function",
      "signature": "0x3477ee2e"
    },
    {
      "constant": true,
      "inputs": [
        {
          "name": "",
          "type": "uint256"
        }
      ],
      "name": "votes",
      "outputs": [
        {
          "name": "",
          "type": "uint256"
        }
      ],
      "payable": false,
      "stateMutability": "view",
      "type": "function",
      "signature": "0x5df81330"
    },
    {
      "inputs": [
        {
          "name": "_candidates",
          "type": "string[]"
        }
      ],
      "payable": false,
      "stateMutability": "nonpayable",
      "type": "constructor",
      "signature": "constructor"
    },
    {
      "constant": false,
      "inputs": [
        {
          "name": "candidate",
          "type": "uint256"
        }
      ],
      "name": "vote",
      "outputs": [],
      "payable": false,
      "stateMutability": "nonpayable",
      "type": "function",
      "signature": "0x0121b93f"
    },
    {
      "constant": false,
      "inputs": [
        {
          "name": "candidateName",
          "type": "string"
        }
      ],
      "name": "vote",
      "outputs": [
        {
          "name": "",
          "type": "string[]"
        }
      ],
      "payable": false,
      "stateMutability": "nonpayable",
      "type": "function",
      "signature": "0xfc36e15b"
    },
    {
      "constant": true,
      "inputs": [],
      "name": "getCandidates",
      "outputs": [
        {
          "name": "",
          "type": "string[]"
        }
      ],
      "payable": false,
      "stateMutability": "view",
      "type": "function",
      "signature": "0x06a49fce"
    },
    {
      "constant": true,
      "inputs": [],
      "name": "getVotes",
      "outputs": [
        {
          "name": "",
          "type": "uint256[]"
        }
      ],
      "payable": false,
      "stateMutability": "view",
      "type": "function",
      "signature": "0x0dc96015"
    }
  ],
  "bytecode": "0x60806040523480156200001157600080fd5b5060405162001209380380620012098339810180604052620000379190810190620004c7565b80600190805190602001906200004f9291906200020c565b5060018054905060008162000065919062000273565b5060008090505b600180549050811015620002045762000084620002a2565b60408051908101604052808381526020016001151581525090506060600183815481101515620000b057fe5b906000526020600020018054600181600116156101000203166002900480601f016020809104026020016040519081016040528092919081815260200182805460018160011615610100020316600290048015620001525780601f10620001265761010080835404028352916020019162000152565b820191906000526020600020905b8154815290600101906020018083116200013457829003601f168201915b50505050509050816003826040518082805190602001908083835b6020831015156200019457805182526020820191506020810190506020830392506200016d565b6001836020036101000a03801982511681845116808217855250505050505090500191505090815260200160405180910390206000820151816000015560208201518160010160006101000a81548160ff021916908315150217905550905050505080806001019150506200006c565b5050620005c6565b82805482825590600052602060002090810192821562000260579160200282015b828111156200025f5782518290805190602001906200024e929190620002be565b50916020019190600101906200022d565b5b5090506200026f919062000345565b5090565b8154818355818111156200029d578183600052602060002091820191016200029c919062000376565b5b505050565b6040805190810160405280600081526020016000151581525090565b828054600181600116156101000203166002900490600052602060002090601f016020900481019282601f106200030157805160ff191683800117855562000332565b8280016001018555821562000332579182015b828111156200033157825182559160200191906001019062000314565b5b50905062000341919062000376565b5090565b6200037391905b808211156200036f57600081816200036591906200039e565b506001016200034c565b5090565b90565b6200039b91905b80821115620003975760008160009055506001016200037d565b5090565b90565b50805460018160011615610100020316600290046000825580601f10620003c65750620003e7565b601f016020900490600052602060002090810190620003e6919062000376565b5b50565b600082601f8301121515620003fe57600080fd5b8151620004156200040f826200053a565b6200050c565b9150818183526020840193506020810190508360005b838110156200045f578151860162000444888262000469565b8452602084019350602083019250506001810190506200042b565b5050505092915050565b600082601f83011215156200047d57600080fd5b8151620004946200048e8262000563565b6200050c565b91508082526020830160208301858383011115620004b157600080fd5b620004be83828462000590565b50505092915050565b600060208284031215620004da57600080fd5b600082015167ffffffffffffffff811115620004f557600080fd5b6200050384828501620003ea565b91505092915050565b6000604051905081810181811067ffffffffffffffff821117156200053057600080fd5b8060405250919050565b600067ffffffffffffffff8211156200055257600080fd5b602082029050602081019050919050565b600067ffffffffffffffff8211156200057b57600080fd5b601f19601f8301169050602081019050919050565b60005b83811015620005b057808201518184015260208101905062000593565b83811115620005c0576000848401525b50505050565b610c3380620005d66000396000f3fe608060405260043610610078576000357c0100000000000000000000000000000000000000000000000000000000900463ffffffff1680630121b93f1461007d57806306a49fce146100a65780630dc96015146100d15780633477ee2e146100fc5780635df8133014610139578063fc36e15b14610176575b600080fd5b34801561008957600080fd5b506100a4600480360361009f9190810190610827565b61019f565b005b3480156100b257600080fd5b506100bb610319565b6040516100c89190610a03565b60405180910390f35b3480156100dd57600080fd5b506100e6610402565b6040516100f39190610a25565b60405180910390f35b34801561010857600080fd5b50610123600480360361011e9190810190610827565b61045a565b6040516101309190610a47565b60405180910390f35b34801561014557600080fd5b50610160600480360361015b9190810190610827565b610515565b60405161016d9190610ac9565b60405180910390f35b34801561018257600080fd5b5061019d600480360361019891908101906107e6565b610538565b005b806000111580156101b4575060018054905081105b15156101f5576040517f08c379a00000000000000000000000000000000000000000000000000000000081526004016101ec90610a89565b60405180910390fd5b600260003373ffffffffffffffffffffffffffffffffffffffff1673ffffffffffffffffffffffffffffffffffffffff16815260200190815260200160002060009054906101000a900460ff16151515610284576040517f08c379a000000000000000000000000000000000000000000000000000000000815260040161027b90610a69565b60405180910390fd5b600160008281548110151561029557fe5b9060005260206000200154016000828154811015156102b057fe5b90600052602060002001819055506001600260003373ffffffffffffffffffffffffffffffffffffffff1673ffffffffffffffffffffffffffffffffffffffff16815260200190815260200160002060006101000a81548160ff02191690831515021790555050565b60606001805480602002602001604051908101604052809291908181526020016000905b828210156103f9578382906000526020600020018054600181600116156101000203166002900480601f0160208091040260200160405190810160405280929190818152602001828054600181600116156101000203166002900480156103e55780601f106103ba576101008083540402835291602001916103e5565b820191906000526020600020905b8154815290600101906020018083116103c857829003601f168201915b50505050508152602001906001019061033d565b50505050905090565b6060600080548060200260200160405190810160405280929190818152602001828054801561045057602002820191906000526020600020905b81548152602001906001019080831161043c575b5050505050905090565b60018181548110151561046957fe5b906000526020600020016000915090508054600181600116156101000203166002900480601f01602080910402602001604051908101604052809291908181526020018280546001816001161561010002031660029004801561050d5780601f106104e25761010080835404028352916020019161050d565b820191906000526020600020905b8154815290600101906020018083116104f057829003601f168201915b505050505081565b60008181548110151561052457fe5b906000526020600020016000915090505481565b600260003373ffffffffffffffffffffffffffffffffffffffff1673ffffffffffffffffffffffffffffffffffffffff16815260200190815260200160002060009054906101000a900460ff161515156105c7576040517f08c379a00000000000000000000000000000000000000000000000000000000081526004016105be90610a69565b60405180910390fd5b6105cf610760565b6003826040518082805190602001908083835b60208310151561060757805182526020820191506020810190506020830392506105e2565b6001836020036101000a0380198251168184511680821785525050505050509050019150509081526020016040518091039020604080519081016040529081600082015481526020016001820160009054906101000a900460ff16151515158152505090506000816000015114801561068257508060200151155b156106c2576040517f08c379a00000000000000000000000000000000000000000000000000000000081526004016106b990610aa9565b60405180910390fd5b6001600082600001518154811015156106d757fe5b906000526020600020015401600082600001518154811015156106f657fe5b90600052602060002001819055506001600260003373ffffffffffffffffffffffffffffffffffffffff1673ffffffffffffffffffffffffffffffffffffffff16815260200190815260200160002060006101000a81548160ff0219169083151502179055505050565b6040805190810160405280600081526020016000151581525090565b600082601f830112151561078f57600080fd5b81356107a261079d82610b11565b610ae4565b915080825260208301602083018583830111156107be57600080fd5b6107c9838284610ba6565b50505092915050565b60006107de8235610b9c565b905092915050565b6000602082840312156107f857600080fd5b600082013567ffffffffffffffff81111561081257600080fd5b61081e8482850161077c565b91505092915050565b60006020828403121561083957600080fd5b6000610847848285016107d2565b91505092915050565b600061085b82610b57565b8084526020840193508360208202850161087485610b3d565b60005b848110156108ad57838303885261088f838351610919565b925061089a82610b78565b9150602088019750600181019050610877565b508196508694505050505092915050565b60006108c982610b62565b8084526020840193506108db83610b4a565b60005b8281101561090d576108f18683516109f4565b6108fa82610b85565b91506020860195506001810190506108de565b50849250505092915050565b600061092482610b6d565b808452610938816020860160208601610bb5565b61094181610be8565b602085010191505092915050565b6000601982527f4163636f756e742068617320616c726561647920766f746564000000000000006020830152604082019050919050565b6000601182527f496e76616c69642063616e6469646174650000000000000000000000000000006020830152604082019050919050565b6000601882527f43616e64696461746520646f6573206e6f7420657869737400000000000000006020830152604082019050919050565b6109fd81610b92565b82525050565b60006020820190508181036000830152610a1d8184610850565b905092915050565b60006020820190508181036000830152610a3f81846108be565b905092915050565b60006020820190508181036000830152610a618184610919565b905092915050565b60006020820190508181036000830152610a828161094f565b9050919050565b60006020820190508181036000830152610aa281610986565b9050919050565b60006020820190508181036000830152610ac2816109bd565b9050919050565b6000602082019050610ade60008301846109f4565b92915050565b6000604051905081810181811067ffffffffffffffff82111715610b0757600080fd5b8060405250919050565b600067ffffffffffffffff821115610b2857600080fd5b601f19601f8301169050602081019050919050565b6000602082019050919050565b6000602082019050919050565b600081519050919050565b600081519050919050565b600081519050919050565b6000602082019050919050565b6000602082019050919050565b6000819050919050565b6000819050919050565b82818337600083830152505050565b60005b83811015610bd3578082015181840152602081019050610bb8565b83811115610be2576000848401525b50505050565b6000601f19601f830116905091905056fea265627a7a72305820524a33ccd1507607fb4b41b7ac0ef080c9800503d51530444c0a52bebc25b3c56c6578706572696d656e74616cf50037",
  "source": "pragma solidity ^0.5.0;\npragma experimental ABIEncoderV2;\n\n\ncontract Voter {\n  \n  struct Candidate{\n    uint position;\n    bool exist;\n  }\n\n  uint[] public votes;\n  string[] public candidates;\n  mapping (address => bool) hasVoted;\n  mapping (string => Candidate) posOfCandidate;\n\n  \n  \n  constructor(string[] memory _candidates) public {\n    candidates = _candidates;\n    votes.length = candidates.length;\n\n    for(uint i = 0; i < candidates.length; i++ ){\n      Candidate memory candidate =  Candidate(i,true);\n      string memory candidateName =candidates[i];\n      posOfCandidate[candidateName] = candidate;\n    }\n  }\n\n  //use to cast a vote. Acceppts the index of candidate in candidates[]\n  function vote(uint candidate) public {\n   \n    // Validate if the argument is valid\n    require(0 <= candidate && candidate < candidates.length, \"Invalid candidate\");\n    require(!hasVoted[msg.sender], \"Account has already voted\");\n\n    votes[candidate] = votes[candidate] + 1;\n    hasVoted[msg.sender] = true;\n  }\n\n  function vote(string memory candidateName) public {\n    require(!hasVoted[msg.sender], \"Account has already voted\");\n\n    Candidate memory candidate = posOfCandidate[candidateName];\n\n    if((candidate.position == 0 && !candidate.exist)){\n        revert(\"Candidate does not exist\");\n    }\n    \n    votes[candidate.position] = votes[candidate.position] +1;\n    hasVoted[msg.sender] = true;\n  }\n\n\n// Returns a list of candidates\n  function getCandidates() view public returns (string[] memory) {\n    return candidates;\n  }\n\n\n  function getVotes() view public returns (uint[] memory) {\n    return votes;\n  }\n\n\n}\n",
  "sourcePath": "C:/projects/BLOCKCHAIN STACK/voting-system/contracts/Voter.sol",
  "compiler": {
    "name": "solc",
    "version": "0.5.0+commit.1d4f565a.Emscripten.clang"
  },
  "schemaVersion": "3.0.6",
  "updatedAt": "2019-04-21T04:23:46.829Z",
  "devdoc": {
    "methods": {}
  },
  "userdoc": {
    "methods": {}
  }
}